{
  "_format": "hh-sol-artifact-1",
  "contractName": "ZKVoting",
  "sourceName": "contracts/ZKVoting.sol",
  "abi": [
    {
      "inputs": [],
      "stateMutability": "nonpayable",
      "type": "constructor"
    },
    {
      "anonymous": false,
      "inputs": [
        {
          "indexed": true,
          "internalType": "address",
          "name": "owner",
          "type": "address"
        },
        {
          "indexed": true,
          "internalType": "address",
          "name": "spender",
          "type": "address"
        },
        {
          "indexed": false,
          "internalType": "uint256",
          "name": "value",
          "type": "uint256"
        }
      ],
      "name": "Approval",
      "type": "event"
    },
    {
      "anonymous": false,
      "inputs": [
        {
          "indexed": true,
          "internalType": "address",
          "name": "from",
          "type": "address"
        },
        {
          "indexed": true,
          "internalType": "address",
          "name": "to",
          "type": "address"
        },
        {
          "indexed": true,
          "internalType": "address",
          "name": "issuer",
          "type": "address"
        },
        {
          "indexed": false,
          "internalType": "uint256",
          "name": "value",
          "type": "uint256"
        }
      ],
      "name": "Fee",
      "type": "event"
    },
    {
      "anonymous": false,
      "inputs": [
        {
          "indexed": false,
          "internalType": "uint256",
          "name": "fee",
          "type": "uint256"
        }
      ],
      "name": "FeeUpdated",
      "type": "event"
    },
    {
      "anonymous": false,
      "inputs": [
        {
          "indexed": false,
          "internalType": "uint256",
          "name": "proposalId",
          "type": "uint256"
        },
        {
          "indexed": true,
          "internalType": "address",
          "name": "authority",
          "type": "address"
        },
        {
          "indexed": true,
          "internalType": "address[]",
          "name": "candidates",
          "type": "address[]"
        },
        {
          "indexed": false,
          "internalType": "bytes32",
          "name": "merkle_root",
          "type": "bytes32"
        },
        {
          "indexed": false,
          "internalType": "bytes32",
          "name": "metadata",
          "type": "bytes32"
        }
      ],
      "name": "InitProposal",
      "type": "event"
    },
    {
      "anonymous": false,
      "inputs": [
        {
          "indexed": true,
          "internalType": "address",
          "name": "previousOwner",
          "type": "address"
        },
        {
          "indexed": true,
          "internalType": "address",
          "name": "newOwner",
          "type": "address"
        }
      ],
      "name": "OwnershipTransferred",
      "type": "event"
    },
    {
      "anonymous": false,
      "inputs": [
        {
          "indexed": true,
          "internalType": "address",
          "name": "from",
          "type": "address"
        },
        {
          "indexed": true,
          "internalType": "address",
          "name": "to",
          "type": "address"
        },
        {
          "indexed": false,
          "internalType": "uint256",
          "name": "value",
          "type": "uint256"
        }
      ],
      "name": "Transfer",
      "type": "event"
    },
    {
      "inputs": [],
      "name": "acceptOwnership",
      "outputs": [],
      "stateMutability": "nonpayable",
      "type": "function"
    },
    {
      "inputs": [
        {
          "internalType": "address",
          "name": "owner",
          "type": "address"
        },
        {
          "internalType": "address",
          "name": "spender",
          "type": "address"
        }
      ],
      "name": "allowance",
      "outputs": [
        {
          "internalType": "uint256",
          "name": "",
          "type": "uint256"
        }
      ],
      "stateMutability": "view",
      "type": "function"
    },
    {
      "inputs": [
        {
          "internalType": "address",
          "name": "spender",
          "type": "address"
        },
        {
          "internalType": "uint256",
          "name": "amount",
          "type": "uint256"
        }
      ],
      "name": "approve",
      "outputs": [
        {
          "internalType": "bool",
          "name": "",
          "type": "bool"
        }
      ],
      "stateMutability": "nonpayable",
      "type": "function"
    },
    {
      "inputs": [
        {
          "internalType": "address",
          "name": "owner",
          "type": "address"
        }
      ],
      "name": "balanceOf",
      "outputs": [
        {
          "internalType": "uint256",
          "name": "",
          "type": "uint256"
        }
      ],
      "stateMutability": "view",
      "type": "function"
    },
    {
      "inputs": [
        {
          "internalType": "uint256",
          "name": "amount",
          "type": "uint256"
        }
      ],
      "name": "burn",
      "outputs": [
        {
          "internalType": "bool",
          "name": "",
          "type": "bool"
        }
      ],
      "stateMutability": "nonpayable",
      "type": "function"
    },
    {
      "inputs": [],
      "name": "decimals",
      "outputs": [
        {
          "internalType": "uint8",
          "name": "",
          "type": "uint8"
        }
      ],
      "stateMutability": "view",
      "type": "function"
    },
    {
      "inputs": [
        {
          "internalType": "uint256",
          "name": "value",
          "type": "uint256"
        }
      ],
      "name": "estimateFee",
      "outputs": [
        {
          "internalType": "uint256",
          "name": "",
          "type": "uint256"
        }
      ],
      "stateMutability": "view",
      "type": "function"
    },
    {
      "inputs": [
        {
          "internalType": "uint256",
          "name": "index",
          "type": "uint256"
        }
      ],
      "name": "getProposal",
      "outputs": [
        {
          "components": [
            {
              "internalType": "bytes32",
              "name": "merkleRoot",
              "type": "bytes32"
            },
            {
              "internalType": "bytes32",
              "name": "metadata",
              "type": "bytes32"
            },
            {
              "components": [
                {
                  "internalType": "uint256",
                  "name": "x",
                  "type": "uint256"
                },
                {
                  "internalType": "uint256",
                  "name": "y",
                  "type": "uint256"
                }
              ],
              "internalType": "struct ZKVoting.Point[]",
              "name": "ballotBoxes",
              "type": "tuple[]"
            },
            {
              "internalType": "uint256",
              "name": "startDate",
              "type": "uint256"
            },
            {
              "internalType": "uint256",
              "name": "endDate",
              "type": "uint256"
            },
            {
              "internalType": "address",
              "name": "authority",
              "type": "address"
            },
            {
              "internalType": "uint256[]",
              "name": "randomNumbers",
              "type": "uint256[]"
            },
            {
              "internalType": "address[]",
              "name": "candidates",
              "type": "address[]"
            },
            {
              "internalType": "uint256",
              "name": "commitment",
              "type": "uint256"
            }
          ],
          "internalType": "struct ZKVoting.Proposal",
          "name": "",
          "type": "tuple"
        }
      ],
      "stateMutability": "view",
      "type": "function"
    },
    {
      "inputs": [
        {
          "internalType": "bytes32",
          "name": "_merkleRoot",
          "type": "bytes32"
        },
        {
          "internalType": "bytes32",
          "name": "_metadata",
          "type": "bytes32"
        },
        {
          "internalType": "uint256",
          "name": "_startDate",
          "type": "uint256"
        },
        {
          "internalType": "uint256",
          "name": "_endDate",
          "type": "uint256"
        },
        {
          "internalType": "uint256",
          "name": "_commitment",
          "type": "uint256"
        },
        {
          "internalType": "uint256[]",
          "name": "_randomNumbers",
          "type": "uint256[]"
        },
        {
          "internalType": "address[]",
          "name": "_candidates",
          "type": "address[]"
        },
        {
          "components": [
            {
              "internalType": "uint256",
              "name": "x",
              "type": "uint256"
            },
            {
              "internalType": "uint256",
              "name": "y",
              "type": "uint256"
            }
          ],
          "internalType": "struct ZKVoting.Point[]",
          "name": "_ballotBoxes",
          "type": "tuple[]"
        }
      ],
      "name": "initProposal",
      "outputs": [],
      "stateMutability": "nonpayable",
      "type": "function"
    },
    {
      "inputs": [],
      "name": "issuer",
      "outputs": [
        {
          "internalType": "address",
          "name": "",
          "type": "address"
        }
      ],
      "stateMutability": "view",
      "type": "function"
    },
    {
      "inputs": [],
      "name": "minFee",
      "outputs": [
        {
          "internalType": "uint256",
          "name": "",
          "type": "uint256"
        }
      ],
      "stateMutability": "view",
      "type": "function"
    },
    {
      "inputs": [],
      "name": "name",
      "outputs": [
        {
          "internalType": "string",
          "name": "",
          "type": "string"
        }
      ],
      "stateMutability": "view",
      "type": "function"
    },
    {
      "inputs": [],
      "name": "owner",
      "outputs": [
        {
          "internalType": "address",
          "name": "",
          "type": "address"
        }
      ],
      "stateMutability": "view",
      "type": "function"
    },
    {
      "inputs": [],
      "name": "proposalId",
      "outputs": [
        {
          "internalType": "uint256",
          "name": "",
          "type": "uint256"
        }
      ],
      "stateMutability": "view",
      "type": "function"
    },
    {
      "inputs": [
        {
          "internalType": "uint256",
          "name": "",
          "type": "uint256"
        }
      ],
      "name": "proposals",
      "outputs": [
        {
          "internalType": "bytes32",
          "name": "merkleRoot",
          "type": "bytes32"
        },
        {
          "internalType": "bytes32",
          "name": "metadata",
          "type": "bytes32"
        },
        {
          "internalType": "uint256",
          "name": "startDate",
          "type": "uint256"
        },
        {
          "internalType": "uint256",
          "name": "endDate",
          "type": "uint256"
        },
        {
          "internalType": "address",
          "name": "authority",
          "type": "address"
        },
        {
          "internalType": "uint256",
          "name": "commitment",
          "type": "uint256"
        }
      ],
      "stateMutability": "view",
      "type": "function"
    },
    {
      "inputs": [],
      "name": "pubkey",
      "outputs": [
        {
          "internalType": "uint256",
          "name": "x",
          "type": "uint256"
        },
        {
          "internalType": "uint256",
          "name": "y",
          "type": "uint256"
        }
      ],
      "stateMutability": "view",
      "type": "function"
    },
    {
      "inputs": [
        {
          "internalType": "uint256",
          "name": "",
          "type": "uint256"
        },
        {
          "internalType": "address",
          "name": "",
          "type": "address"
        }
      ],
      "name": "receipts",
      "outputs": [
        {
          "internalType": "bool",
          "name": "",
          "type": "bool"
        }
      ],
      "stateMutability": "view",
      "type": "function"
    },
    {
      "inputs": [
        {
          "internalType": "uint256",
          "name": "fee",
          "type": "uint256"
        }
      ],
      "name": "setFee",
      "outputs": [],
      "stateMutability": "nonpayable",
      "type": "function"
    },
    {
      "inputs": [
        {
          "internalType": "bytes4",
          "name": "interfaceId",
          "type": "bytes4"
        }
      ],
      "name": "supportsInterface",
      "outputs": [
        {
          "internalType": "bool",
          "name": "",
          "type": "bool"
        }
      ],
      "stateMutability": "view",
      "type": "function"
    },
    {
      "inputs": [],
      "name": "symbol",
      "outputs": [
        {
          "internalType": "string",
          "name": "",
          "type": "string"
        }
      ],
      "stateMutability": "view",
      "type": "function"
    },
    {
      "inputs": [],
      "name": "totalSupply",
      "outputs": [
        {
          "internalType": "uint256",
          "name": "",
          "type": "uint256"
        }
      ],
      "stateMutability": "view",
      "type": "function"
    },
    {
      "inputs": [
        {
          "internalType": "address",
          "name": "recipient",
          "type": "address"
        },
        {
          "internalType": "uint256",
          "name": "amount",
          "type": "uint256"
        }
      ],
      "name": "transfer",
      "outputs": [
        {
          "internalType": "bool",
          "name": "",
          "type": "bool"
        }
      ],
      "stateMutability": "nonpayable",
      "type": "function"
    },
    {
      "inputs": [
        {
          "internalType": "address",
          "name": "sender",
          "type": "address"
        },
        {
          "internalType": "address",
          "name": "recipient",
          "type": "address"
        },
        {
          "internalType": "uint256",
          "name": "amount",
          "type": "uint256"
        }
      ],
      "name": "transferFrom",
      "outputs": [
        {
          "internalType": "bool",
          "name": "",
          "type": "bool"
        }
      ],
      "stateMutability": "nonpayable",
      "type": "function"
    },
    {
      "inputs": [
        {
          "internalType": "address",
          "name": "newOwner",
          "type": "address"
        }
      ],
      "name": "transferOwnership",
      "outputs": [],
      "stateMutability": "nonpayable",
      "type": "function"
    },
    {
      "inputs": [
        {
          "internalType": "uint256",
          "name": "_proposalId",
          "type": "uint256"
        },
        {
          "internalType": "uint256[]",
          "name": "_randomNumbers",
          "type": "uint256[]"
        },
        {
          "components": [
            {
              "internalType": "uint256",
              "name": "x",
              "type": "uint256"
            },
            {
              "internalType": "uint256",
              "name": "y",
              "type": "uint256"
            }
          ],
          "internalType": "struct ZKVoting.Point[]",
          "name": "votes",
          "type": "tuple[]"
        },
        {
          "internalType": "bytes32[]",
          "name": "proof",
          "type": "bytes32[]"
        },
        {
          "internalType": "uint256[]",
          "name": "public_r",
          "type": "uint256[]"
        },
        {
          "components": [
            {
              "internalType": "uint256",
              "name": "x",
              "type": "uint256"
            },
            {
              "internalType": "uint256",
              "name": "y",
              "type": "uint256"
            }
          ],
          "internalType": "struct ZKVoting.Point[]",
          "name": "public_t",
          "type": "tuple[]"
        }
      ],
      "name": "vote",
      "outputs": [],
      "stateMutability": "nonpayable",
      "type": "function"
    }
  ],
  "bytecode": "0x608060405260405180604001604052807f7e4dc51d40d3cae8270114e49435b26455518e6688378168d83ed2d879b26cf081526020017fab878062535ec3dcb0f5784f26b78580a259c6581598c764aee8575b197131878152506009600082015181600001556020820151816001015550506000600d553480156200008357600080fd5b506040518060400160405280600881526020017f5a4b566f74696e670000000000000000000000000000000000000000000000008152506040518060400160405280600281526020017f414200000000000000000000000000000000000000000000000000000000000081525060128260059081620001039190620003f5565b508160069081620001159190620003f5565b5080600760006101000a81548160ff021916908360ff16021790555033600260006101000a81548173ffffffffffffffffffffffffffffffffffffffff021916908373ffffffffffffffffffffffffffffffffffffffff160217905550505050620004dc565b600081519050919050565b7f4e487b7100000000000000000000000000000000000000000000000000000000600052604160045260246000fd5b7f4e487b7100000000000000000000000000000000000000000000000000000000600052602260045260246000fd5b60006002820490506001821680620001fd57607f821691505b602082108103620002135762000212620001b5565b5b50919050565b60008190508160005260206000209050919050565b60006020601f8301049050919050565b600082821b905092915050565b6000600883026200027d7fffffffffffffffffffffffffffffffffffffffffffffffffffffffffffffffff826200023e565b6200028986836200023e565b95508019841693508086168417925050509392505050565b6000819050919050565b6000819050919050565b6000620002d6620002d0620002ca84620002a1565b620002ab565b620002a1565b9050919050565b6000819050919050565b620002f283620002b5565b6200030a6200030182620002dd565b8484546200024b565b825550505050565b600090565b6200032162000312565b6200032e818484620002e7565b505050565b5b8181101562000356576200034a60008262000317565b60018101905062000334565b5050565b601f821115620003a5576200036f8162000219565b6200037a846200022e565b810160208510156200038a578190505b620003a262000399856200022e565b83018262000333565b50505b505050565b600082821c905092915050565b6000620003ca60001984600802620003aa565b1980831691505092915050565b6000620003e58383620003b7565b9150826002028217905092915050565b62000400826200017b565b67ffffffffffffffff8111156200041c576200041b62000186565b5b620004288254620001e4565b620004358282856200035a565b600060209050601f8311600181146200046d576000841562000458578287015190505b620004648582620003d7565b865550620004d4565b601f1984166200047d8662000219565b60005b82811015620004a75784890151825560018201915060208501945060208101905062000480565b86831015620004c75784890151620004c3601f891682620003b7565b8355505b6001600288020188555050505b505050505050565b614a2980620004ec6000396000f3fe608060405234801561001057600080fd5b50600436106101735760003560e01c806342966c68116100de57806395d89b4111610097578063c67cd60c11610071578063c67cd60c1461047e578063c7f758a81461049a578063dd62ed3e146104ca578063f2fde38b146104fa57610173565b806395d89b41146104145780639778199f14610432578063a9059cbb1461044e57610173565b806342966c6814610351578063484d59e61461038157806369fe0e2d146103a057806370a08231146103bc57806379ba5097146103ec5780638da5cb5b146103f657610173565b80631d143848116101305780631d1438481461027957806323b872dd1461029757806324ec7590146102c75780632dfca445146102e5578063313ce567146103035780634178b2491461032157610173565b8063013cf08b1461017857806301ffc9a7146101ad57806306fdde03146101dd578063095ea7b3146101fb578063127e8e4d1461022b57806318160ddd1461025b575b600080fd5b610192600480360381019061018d9190612ff3565b610516565b6040516101a496959493929190613089565b60405180910390f35b6101c760048036038101906101c29190613142565b610572565b6040516101d4919061318a565b60405180910390f35b6101e56105dc565b6040516101f29190613235565b60405180910390f35b61021560048036038101906102109190613283565b61066e565b604051610222919061318a565b60405180910390f35b61024560048036038101906102409190612ff3565b61069e565b60405161025291906132c3565b60405180910390f35b6102636106de565b60405161027091906132c3565b60405180910390f35b6102816106e8565b60405161028e91906132de565b60405180910390f35b6102b160048036038101906102ac91906132f9565b610712565b6040516102be919061318a565b60405180910390f35b6102cf610934565b6040516102dc91906132c3565b60405180910390f35b6102ed61093e565b6040516102fa91906132c3565b60405180910390f35b61030b610944565b6040516103189190613368565b60405180910390f35b61033b60048036038101906103369190613383565b61095b565b604051610348919061318a565b60405180910390f35b61036b60048036038101906103669190612ff3565b61098a565b604051610378919061318a565b60405180910390f35b6103896109b8565b6040516103979291906133c3565b60405180910390f35b6103ba60048036038101906103b59190612ff3565b6109ca565b005b6103d660048036038101906103d191906133ec565b610a9b565b6040516103e391906132c3565b60405180910390f35b6103f4610ae3565b005b6103fe610cbe565b60405161040b91906132de565b60405180910390f35b61041c610ce8565b6040516104299190613235565b60405180910390f35b61044c60048036038101906104479190613768565b610d7a565b005b61046860048036038101906104639190613283565b610f40565b604051610475919061318a565b60405180910390f35b61049860048036038101906104939190613979565b610f6f565b005b6104b460048036038101906104af9190612ff3565b6112dc565b6040516104c19190613ddc565b60405180910390f35b6104e460048036038101906104df9190613dfe565b6114eb565b6040516104f191906132c3565b60405180910390f35b610514600480360381019061050f91906133ec565b611572565b005b600c6020528060005260406000206000915090508060000154908060010154908060030154908060040154908060050160009054906101000a900473ffffffffffffffffffffffffffffffffffffffff16908060080154905086565b60007f08617865000000000000000000000000000000000000000000000000000000007bffffffffffffffffffffffffffffffffffffffffffffffffffffffff1916827bffffffffffffffffffffffffffffffffffffffffffffffffffffffff1916149050919050565b6060600580546105eb90613e6d565b80601f016020809104026020016040519081016040528092919081815260200182805461061790613e6d565b80156106645780601f1061063957610100808354040283529160200191610664565b820191906000526020600020905b81548152906001019060200180831161064757829003601f168201915b5050505050905090565b60008061067b600061069e565b90506106883385856116b5565b61069333308361187e565b600191505092915050565b60006106bf3373ffffffffffffffffffffffffffffffffffffffff1661197c565b156106cd57600090506106d9565b6106d68261198f565b90505b919050565b6000600854905090565b6000600260009054906101000a900473ffffffffffffffffffffffffffffffffffffffff16905090565b60008061071e8361069e565b905061073381846119a490919063ffffffff16565b600460008773ffffffffffffffffffffffffffffffffffffffff1673ffffffffffffffffffffffffffffffffffffffff16815260200190815260200160002060003373ffffffffffffffffffffffffffffffffffffffff1673ffffffffffffffffffffffffffffffffffffffff1681526020019081526020016000205410156107f1576040517f08c379a00000000000000000000000000000000000000000000000000000000081526004016107e890613eea565b60405180910390fd5b6108928161088485600460008a73ffffffffffffffffffffffffffffffffffffffff1673ffffffffffffffffffffffffffffffffffffffff16815260200190815260200160002060003373ffffffffffffffffffffffffffffffffffffffff1673ffffffffffffffffffffffffffffffffffffffff16815260200190815260200160002054611a0290919063ffffffff16565b611a0290919063ffffffff16565b600460008773ffffffffffffffffffffffffffffffffffffffff1673ffffffffffffffffffffffffffffffffffffffff16815260200190815260200160002060003373ffffffffffffffffffffffffffffffffffffffff1673ffffffffffffffffffffffffffffffffffffffff1681526020019081526020016000208190555061091d858585611a5b565b61092885858361187e565b60019150509392505050565b6000600154905090565b600d5481565b6000600760009054906101000a900460ff16905090565b600b6020528160005260406000206020528060005260406000206000915091509054906101000a900460ff1681565b600080610997600061069e565b90506109a33384611d4a565b6109ae33308361187e565b6001915050919050565b60098060000154908060010154905082565b3373ffffffffffffffffffffffffffffffffffffffff16600260009054906101000a900473ffffffffffffffffffffffffffffffffffffffff1673ffffffffffffffffffffffffffffffffffffffff1614610a5a576040517f08c379a0000000000000000000000000000000000000000000000000000000008152600401610a5190613f56565b60405180910390fd5b806001819055507f8c4d35e54a3f2ef1134138fd8ea3daee6a3c89e10d2665996babdf70261e2c7681604051610a9091906132c3565b60405180910390a150565b60008060008373ffffffffffffffffffffffffffffffffffffffff1673ffffffffffffffffffffffffffffffffffffffff168152602001908152602001600020549050919050565b600360009054906101000a900473ffffffffffffffffffffffffffffffffffffffff1673ffffffffffffffffffffffffffffffffffffffff163373ffffffffffffffffffffffffffffffffffffffff1614610b73576040517f08c379a0000000000000000000000000000000000000000000000000000000008152600401610b6a90613fe8565b60405180910390fd5b6000600260009054906101000a900473ffffffffffffffffffffffffffffffffffffffff169050600360009054906101000a900473ffffffffffffffffffffffffffffffffffffffff16600260006101000a81548173ffffffffffffffffffffffffffffffffffffffff021916908373ffffffffffffffffffffffffffffffffffffffff1602179055506000600360006101000a81548173ffffffffffffffffffffffffffffffffffffffff021916908373ffffffffffffffffffffffffffffffffffffffff160217905550600260009054906101000a900473ffffffffffffffffffffffffffffffffffffffff1673ffffffffffffffffffffffffffffffffffffffff168173ffffffffffffffffffffffffffffffffffffffff167f8be0079c531659141344cd1fd0a4f28419497f9722a3daafe3b4186f6b6457e060405160405180910390a350565b6000600260009054906101000a900473ffffffffffffffffffffffffffffffffffffffff16905090565b606060068054610cf790613e6d565b80601f0160208091040260200160405190810160405280929190818152602001828054610d2390613e6d565b8015610d705780601f10610d4557610100808354040283529160200191610d70565b820191906000526020600020905b815481529060010190602001808311610d5357829003601f168201915b5050505050905090565b6000600c6000600d548152602001908152602001600020905088816000018190555087816001018190555086816003018190555085816004018190555083816006019080519060200190610dcf929190612e2b565b5082816007019080519060200190610de8929190612e78565b50338160050160006101000a81548173ffffffffffffffffffffffffffffffffffffffff021916908373ffffffffffffffffffffffffffffffffffffffff16021790555084816008018190555060005b8251811015610eb25781600201838281518110610e5857610e57614008565b5b60200260200101519080600181540180825580915050600190039060005260206000209060020201600090919091909150600082015181600001556020820151816001015550508080610eaa90614066565b915050610e38565b50600d6000815480929190610ec690614066565b919050555082604051610ed9919061413e565b60405180910390203373ffffffffffffffffffffffffffffffffffffffff167f0ab1d147b194c92ca528e4b6997e425fd543031b24928e872d197cdd4e0e49ef600d548c8c604051610f2d93929190614155565b60405180910390a3505050505050505050565b600080610f4c8361069e565b9050610f59338585611a5b565b610f6433858361187e565b600191505092915050565b6000600c60008b815260200190815260200160002090506000889050600033604051602001610f9e91906141d4565b60405160208183030381529060405280519060200120905060005b8989905081101561101b57898982818110610fd757610fd6614008565b5b905060200201358218604051602001610ff09190614210565b604051602081830303815290604052805190602001209150808061101390614066565b915050610fb9565b50611026828c611f52565b611065576040517f08c379a000000000000000000000000000000000000000000000000000000000815260040161105c90614277565b60405180910390fd5b6110778288888888886008015461203b565b6110b6576040517f08c379a00000000000000000000000000000000000000000000000000000000081526004016110ad906142e3565b60405180910390fd5b60005b83600201805490508110156111cc5760008460020182815481106110e0576110df614008565b5b90600052602060002090600202016040518060400160405290816000820154815260200160018201548152505090506000806111628360000151846020015188878151811061113257611131614008565b5b60200260200101516000015189888151811061115157611150614008565b5b602002602001015160200151612165565b9150915060405180604001604052808381526020018281525087600201858154811061119157611190614008565b5b9060005260206000209060020201600082015181600001556020820151816001015590505050505080806111c490614066565b9150506110b9565b5060005b83600601805490508110156112625760008c82815181106111f4576111f3614008565b5b602002602001015185600601838154811061121257611211614008565b5b90600052602060002001546112279190614303565b9050808560060183815481106112405761123f614008565b5b906000526020600020018190555050808061125a90614066565b9150506111d0565b506001600b6000600d54815260200190815260200160002060003373ffffffffffffffffffffffffffffffffffffffff1673ffffffffffffffffffffffffffffffffffffffff16815260200190815260200160002060006101000a81548160ff021916908315150217905550505050505050505050505050565b6112e4612f02565b600c600083815260200190815260200160002060405180610120016040529081600082015481526020016001820154815260200160028201805480602002602001604051908101604052809291908181526020016000905b828210156113825783829060005260206000209060020201604051806040016040529081600082015481526020016001820154815250508152602001906001019061133c565b50505050815260200160038201548152602001600482015481526020016005820160009054906101000a900473ffffffffffffffffffffffffffffffffffffffff1673ffffffffffffffffffffffffffffffffffffffff1673ffffffffffffffffffffffffffffffffffffffff1681526020016006820180548060200260200160405190810160405280929190818152602001828054801561144357602002820191906000526020600020905b81548152602001906001019080831161142f575b50505050508152602001600782018054806020026020016040519081016040528092919081815260200182805480156114d157602002820191906000526020600020905b8160009054906101000a900473ffffffffffffffffffffffffffffffffffffffff1673ffffffffffffffffffffffffffffffffffffffff1681526020019060010190808311611487575b505050505081526020016008820154815250509050919050565b6000600460008473ffffffffffffffffffffffffffffffffffffffff1673ffffffffffffffffffffffffffffffffffffffff16815260200190815260200160002060008373ffffffffffffffffffffffffffffffffffffffff1673ffffffffffffffffffffffffffffffffffffffff16815260200190815260200160002054905092915050565b3373ffffffffffffffffffffffffffffffffffffffff16600260009054906101000a900473ffffffffffffffffffffffffffffffffffffffff1673ffffffffffffffffffffffffffffffffffffffff1614611602576040517f08c379a00000000000000000000000000000000000000000000000000000000081526004016115f990613f56565b60405180910390fd5b600073ffffffffffffffffffffffffffffffffffffffff168173ffffffffffffffffffffffffffffffffffffffff1603611671576040517f08c379a0000000000000000000000000000000000000000000000000000000008152600401611668906143a9565b60405180910390fd5b80600360006101000a81548173ffffffffffffffffffffffffffffffffffffffff021916908373ffffffffffffffffffffffffffffffffffffffff16021790555050565b600073ffffffffffffffffffffffffffffffffffffffff168373ffffffffffffffffffffffffffffffffffffffff1603611724576040517f08c379a000000000000000000000000000000000000000000000000000000000815260040161171b9061443b565b60405180910390fd5b600073ffffffffffffffffffffffffffffffffffffffff168273ffffffffffffffffffffffffffffffffffffffff1603611793576040517f08c379a000000000000000000000000000000000000000000000000000000000815260040161178a906144cd565b60405180910390fd5b80600460008573ffffffffffffffffffffffffffffffffffffffff1673ffffffffffffffffffffffffffffffffffffffff16815260200190815260200160002060008473ffffffffffffffffffffffffffffffffffffffff1673ffffffffffffffffffffffffffffffffffffffff168152602001908152602001600020819055508173ffffffffffffffffffffffffffffffffffffffff168373ffffffffffffffffffffffffffffffffffffffff167f8c5be1e5ebec7d5bd14f71427d1e84f3dd0314c0f7b2291e5b200ac8c7c3b9258360405161187191906132c3565b60405180910390a3505050565b61189d3373ffffffffffffffffffffffffffffffffffffffff1661197c565b611977576000811115611976576118d783600260009054906101000a900473ffffffffffffffffffffffffffffffffffffffff1683611a5b565b600260009054906101000a900473ffffffffffffffffffffffffffffffffffffffff1673ffffffffffffffffffffffffffffffffffffffff168273ffffffffffffffffffffffffffffffffffffffff168473ffffffffffffffffffffffffffffffffffffffff167ffcf5b3276434181e3c48bd3fe569b8939808f11e845d4b963693b9d7dbd6dd998460405161196d91906132c3565b60405180910390a45b5b505050565b600080823b905060008111915050919050565b6000808261199d91906144ed565b9050919050565b60008082846119b39190614303565b9050838110156119f8576040517f08c379a00000000000000000000000000000000000000000000000000000000081526004016119ef9061457b565b60405180910390fd5b8091505092915050565b600082821115611a47576040517f08c379a0000000000000000000000000000000000000000000000000000000008152600401611a3e906145e7565b60405180910390fd5b8183611a539190614607565b905092915050565b600073ffffffffffffffffffffffffffffffffffffffff168373ffffffffffffffffffffffffffffffffffffffff1603611aca576040517f08c379a0000000000000000000000000000000000000000000000000000000008152600401611ac1906146ad565b60405180910390fd5b600073ffffffffffffffffffffffffffffffffffffffff168273ffffffffffffffffffffffffffffffffffffffff1603611b39576040517f08c379a0000000000000000000000000000000000000000000000000000000008152600401611b309061473f565b60405180910390fd5b6000808473ffffffffffffffffffffffffffffffffffffffff1673ffffffffffffffffffffffffffffffffffffffff16815260200190815260200160002054811115611bba576040517f08c379a0000000000000000000000000000000000000000000000000000000008152600401611bb1906147ab565b60405180910390fd5b611c0b816000808673ffffffffffffffffffffffffffffffffffffffff1673ffffffffffffffffffffffffffffffffffffffff16815260200190815260200160002054611a0290919063ffffffff16565b6000808573ffffffffffffffffffffffffffffffffffffffff1673ffffffffffffffffffffffffffffffffffffffff16815260200190815260200160002081905550611c9e816000808573ffffffffffffffffffffffffffffffffffffffff1673ffffffffffffffffffffffffffffffffffffffff168152602001908152602001600020546119a490919063ffffffff16565b6000808473ffffffffffffffffffffffffffffffffffffffff1673ffffffffffffffffffffffffffffffffffffffff168152602001908152602001600020819055508173ffffffffffffffffffffffffffffffffffffffff168373ffffffffffffffffffffffffffffffffffffffff167fddf252ad1be2c89b69c2b068fc378daa952ba7f163c4a11628f55a4df523b3ef83604051611d3d91906132c3565b60405180910390a3505050565b600073ffffffffffffffffffffffffffffffffffffffff168273ffffffffffffffffffffffffffffffffffffffff1603611db9576040517f08c379a0000000000000000000000000000000000000000000000000000000008152600401611db09061483d565b60405180910390fd5b6000808373ffffffffffffffffffffffffffffffffffffffff1673ffffffffffffffffffffffffffffffffffffffff16815260200190815260200160002054811115611e3a576040517f08c379a0000000000000000000000000000000000000000000000000000000008152600401611e31906147ab565b60405180910390fd5b611e4f81600854611a0290919063ffffffff16565b600881905550611ea6816000808573ffffffffffffffffffffffffffffffffffffffff1673ffffffffffffffffffffffffffffffffffffffff16815260200190815260200160002054611a0290919063ffffffff16565b6000808473ffffffffffffffffffffffffffffffffffffffff1673ffffffffffffffffffffffffffffffffffffffff16815260200190815260200160002081905550600073ffffffffffffffffffffffffffffffffffffffff168273ffffffffffffffffffffffffffffffffffffffff167fddf252ad1be2c89b69c2b068fc378daa952ba7f163c4a11628f55a4df523b3ef83604051611f4691906132c3565b60405180910390a35050565b6000806000905060005b8351811015611fa057838181518110611f7857611f77614008565b5b602002602001015182611f8b9190614303565b91508080611f9890614066565b915050611f5c565b50600080611fad866121a4565b91509150600080611fc98560096000015460096001015461222e565b9150915060008061201c84847f79be667ef9dcbbac55a06295ce870b07029bfcdb2dce28d959f2815b16f817987f483ada7726a3c4655da4fbfc0e1108a8fd17b448a68554199c47d08ffb10d4b8612165565b9150915061202c8686848461226b565b97505050505050505092915050565b6000806000905060005b885181101561214757600089828151811061206357612062614008565b5b60200260200101519050600080612083878460000151856020015161222e565b9150915060008b8b8681811061209c5761209b614008565b5b9050602002013590506000806120bd8360096000015460096001015461222e565b9150915060008c8c898181106120d6576120d5614008565b5b9050604002018036038101906120ec919061485d565b90506000806120fd85858a8a612285565b915091508260000151821480156121175750826020015181145b1561212b578a8061212790614066565b9b50505b505050505050505050808061213f90614066565b915050612045565b50600188516121569190614607565b81149150509695505050505050565b6000806121978686868660007ffffffffffffffffffffffffffffffffffffffffffffffffffffffffefffffc2f6122c4565b9150915094509492505050565b60008060008060005b85518110156122205760008061220185858a86815181106121d1576121d0614008565b5b6020026020010151600001518b87815181106121f0576121ef614008565b5b602002602001015160200151612165565b915091508194508093505050808061221890614066565b9150506121ad565b508181935093505050915091565b60008061225f85858560007ffffffffffffffffffffffffffffffffffffffffffffffffffffffffefffffc2f612357565b91509150935093915050565b6000828514801561227b57508184145b9050949350505050565b6000806122b78686868660007ffffffffffffffffffffffffffffffffffffffffffffffffffffffffefffffc2f612391565b9150915094509492505050565b6000806000806000888b0361231a57600086806122e4576122e361488a565b5b898c08036122fb576000809450945050505061234c565b6123098b8b60018a8a6123c5565b809350819450829550505050612338565b61232b8b8b60018c8c60018c612583565b8093508194508295505050505b61234483838389612c02565b945094505050505b965096945050505050565b600080600080600061236e8a8a8a60018b8b612c79565b92509250925061238083838389612c02565b945094505050509550959350505050565b6000806000806123a2888887612d18565b915091506123b48a8a84848a8a6122c4565b935093505050965096945050505050565b60008060008086036123df57878787925092509250612578565b600084806123f0576123ef61488a565b5b898a099050600085806124065761240561488a565b5b898a0990506000868061241c5761241b61488a565b5b898a099050600087806124325761243161488a565b5b88806124415761244061488a565b5b848e0960040990506000888061245a5761245961488a565b5b89806124695761246861488a565b5b8a806124785761247761488a565b5b8586098c098a8061248c5761248b61488a565b5b8760030908905088806124a2576124a161488a565b5b89806124b1576124b061488a565b5b8384088a6124bf9190614607565b8a806124ce576124cd61488a565b5b83840908945088806124e3576124e261488a565b5b89806124f2576124f161488a565b5b8a806125015761250061488a565b5b8687096008098a6125129190614607565b8a806125215761252061488a565b5b8b806125305761252f61488a565b5b888d61253c9190614607565b8608840908935088806125525761255161488a565b5b89806125615761256061488a565b5b8c8e09600209925084848497509750975050505050505b955095509592505050565b6000806000808a1480156125975750600089145b156125aa57868686925092509250612bf5565b6000871480156125ba5750600086145b156125cd57898989925092509250612bf5565b6125d5612f6a565b84806125e4576125e361488a565b5b898a09816000600481106125fb576125fa614008565b5b60200201818152505084806126135761261261488a565b5b8160006004811061262757612626614008565b5b60200201518a098160016004811061264257612641614008565b5b602002018181525050848061265a5761265961488a565b5b8687098160026004811061267157612670614008565b5b60200201818152505084806126895761268861488a565b5b8160026004811061269d5761269c614008565b5b60200201518709816003600481106126b8576126b7614008565b5b602002018181525050604051806080016040528086806126db576126da61488a565b5b836002600481106126ef576126ee614008565b5b60200201518e098152602001868061270a5761270961488a565b5b8360036004811061271e5761271d614008565b5b60200201518d09815260200186806127395761273861488a565b5b8360006004811061274d5761274c614008565b5b60200201518b09815260200186806127685761276761488a565b5b8360016004811061277c5761277b614008565b5b60200201518a0981525090508060026004811061279c5761279b614008565b5b6020020151816000600481106127b5576127b4614008565b5b60200201511415806127f75750806003600481106127d6576127d5614008565b5b6020020151816001600481106127ef576127ee614008565b5b602002015114155b612836576040517f08c379a000000000000000000000000000000000000000000000000000000000815260040161282d90614905565b60405180910390fd5b61283e612f6a565b858061284d5761284c61488a565b5b8260006004811061286157612860614008565b5b6020020151876128719190614607565b8360026004811061288557612884614008565b5b6020020151088160006004811061289f5761289e614008565b5b60200201818152505085806128b7576128b661488a565b5b826001600481106128cb576128ca614008565b5b6020020151876128db9190614607565b836003600481106128ef576128ee614008565b5b6020020151088160016004811061290957612908614008565b5b60200201818152505085806129215761292061488a565b5b8160006004811061293557612934614008565b5b60200201518260006004811061294e5761294d614008565b5b6020020151098160026004811061296857612967614008565b5b60200201818152505085806129805761297f61488a565b5b8160006004811061299457612993614008565b5b6020020151826002600481106129ad576129ac614008565b5b602002015109816003600481106129c7576129c6614008565b5b602002018181525050600086806129e1576129e061488a565b5b826003600481106129f5576129f4614008565b5b602002015188612a059190614607565b8880612a1457612a1361488a565b5b84600160048110612a2857612a27614008565b5b602002015185600160048110612a4157612a40614008565b5b6020020151090890508680612a5957612a5861488a565b5b8780612a6857612a6761488a565b5b8880612a7757612a7661488a565b5b84600260048110612a8b57612a8a614008565b5b602002015186600060048110612aa457612aa3614008565b5b60200201510960020988612ab89190614607565b8208905060008780612acd57612acc61488a565b5b8880612adc57612adb61488a565b5b838a612ae89190614607565b8a80612af757612af661488a565b5b86600260048110612b0b57612b0a614008565b5b602002015188600060048110612b2457612b23614008565b5b6020020151090884600160048110612b3f57612b3e614008565b5b60200201510990508780612b5657612b5561488a565b5b8880612b6557612b6461488a565b5b84600360048110612b7957612b78614008565b5b602002015186600160048110612b9257612b91614008565b5b60200201510989612ba39190614607565b8208905060008880612bb857612bb761488a565b5b8980612bc757612bc661488a565b5b8b8f0985600060048110612bde57612bdd614008565b5b602002015109905082828297509750975050505050505b9750975097945050505050565b6000806000612c118585612d3f565b905060008480612c2457612c2361488a565b5b828309905060008580612c3a57612c3961488a565b5b828a09905060008680612c5057612c4f61488a565b5b8780612c5f57612c5e61488a565b5b8486098a0990508181955095505050505094509492505050565b6000806000808903612c9357878787925092509250612d0c565b60008990506000806000600190505b60008414612cfe5760006001851614612cd157612cc48383838f8f8f8e612583565b8093508194508295505050505b600284612cde9190614925565b9350612ced8c8c8c8c8c6123c5565b809c50819d50829e50505050612ca2565b828282965096509650505050505b96509650969350505050565b60008084838585612d299190614607565b612d339190614956565b91509150935093915050565b6000808314158015612d515750818314155b8015612d5e575060008214155b612d9d576040517f08c379a0000000000000000000000000000000000000000000000000000000008152600401612d94906149d3565b60405180910390fd5b60008060019050600084905060005b60008714612e1e578682612dc09190614925565b9050828680612dd257612dd161488a565b5b8780612de157612de061488a565b5b85840988612def9190614607565b86088094508195505050868782612e0691906144ed565b83612e119190614607565b8098508193505050612dac565b8394505050505092915050565b828054828255906000526020600020908101928215612e67579160200282015b82811115612e66578251825591602001919060010190612e4b565b5b509050612e749190612f8c565b5090565b828054828255906000526020600020908101928215612ef1579160200282015b82811115612ef05782518260006101000a81548173ffffffffffffffffffffffffffffffffffffffff021916908373ffffffffffffffffffffffffffffffffffffffff16021790555091602001919060010190612e98565b5b509050612efe9190612f8c565b5090565b6040518061012001604052806000801916815260200160008019168152602001606081526020016000815260200160008152602001600073ffffffffffffffffffffffffffffffffffffffff1681526020016060815260200160608152602001600081525090565b6040518060800160405280600490602082028036833780820191505090505090565b5b80821115612fa5576000816000905550600101612f8d565b5090565b6000604051905090565b600080fd5b600080fd5b6000819050919050565b612fd081612fbd565b8114612fdb57600080fd5b50565b600081359050612fed81612fc7565b92915050565b60006020828403121561300957613008612fb3565b5b600061301784828501612fde565b91505092915050565b6000819050919050565b61303381613020565b82525050565b61304281612fbd565b82525050565b600073ffffffffffffffffffffffffffffffffffffffff82169050919050565b600061307382613048565b9050919050565b61308381613068565b82525050565b600060c08201905061309e600083018961302a565b6130ab602083018861302a565b6130b86040830187613039565b6130c56060830186613039565b6130d2608083018561307a565b6130df60a0830184613039565b979650505050505050565b60007fffffffff0000000000000000000000000000000000000000000000000000000082169050919050565b61311f816130ea565b811461312a57600080fd5b50565b60008135905061313c81613116565b92915050565b60006020828403121561315857613157612fb3565b5b60006131668482850161312d565b91505092915050565b60008115159050919050565b6131848161316f565b82525050565b600060208201905061319f600083018461317b565b92915050565b600081519050919050565b600082825260208201905092915050565b60005b838110156131df5780820151818401526020810190506131c4565b60008484015250505050565b6000601f19601f8301169050919050565b6000613207826131a5565b61321181856131b0565b93506132218185602086016131c1565b61322a816131eb565b840191505092915050565b6000602082019050818103600083015261324f81846131fc565b905092915050565b61326081613068565b811461326b57600080fd5b50565b60008135905061327d81613257565b92915050565b6000806040838503121561329a57613299612fb3565b5b60006132a88582860161326e565b92505060206132b985828601612fde565b9150509250929050565b60006020820190506132d86000830184613039565b92915050565b60006020820190506132f3600083018461307a565b92915050565b60008060006060848603121561331257613311612fb3565b5b60006133208682870161326e565b93505060206133318682870161326e565b925050604061334286828701612fde565b9150509250925092565b600060ff82169050919050565b6133628161334c565b82525050565b600060208201905061337d6000830184613359565b92915050565b6000806040838503121561339a57613399612fb3565b5b60006133a885828601612fde565b92505060206133b98582860161326e565b9150509250929050565b60006040820190506133d86000830185613039565b6133e56020830184613039565b9392505050565b60006020828403121561340257613401612fb3565b5b60006134108482850161326e565b91505092915050565b61342281613020565b811461342d57600080fd5b50565b60008135905061343f81613419565b92915050565b600080fd5b7f4e487b7100000000000000000000000000000000000000000000000000000000600052604160045260246000fd5b613482826131eb565b810181811067ffffffffffffffff821117156134a1576134a061344a565b5b80604052505050565b60006134b4612fa9565b90506134c08282613479565b919050565b600067ffffffffffffffff8211156134e0576134df61344a565b5b602082029050602081019050919050565b600080fd5b6000613509613504846134c5565b6134aa565b9050808382526020820190506020840283018581111561352c5761352b6134f1565b5b835b8181101561355557806135418882612fde565b84526020840193505060208101905061352e565b5050509392505050565b600082601f83011261357457613573613445565b5b81356135848482602086016134f6565b91505092915050565b600067ffffffffffffffff8211156135a8576135a761344a565b5b602082029050602081019050919050565b60006135cc6135c78461358d565b6134aa565b905080838252602082019050602084028301858111156135ef576135ee6134f1565b5b835b818110156136185780613604888261326e565b8452602084019350506020810190506135f1565b5050509392505050565b600082601f83011261363757613636613445565b5b81356136478482602086016135b9565b91505092915050565b600067ffffffffffffffff82111561366b5761366a61344a565b5b602082029050602081019050919050565b600080fd5b6000604082840312156136975761369661367c565b5b6136a160406134aa565b905060006136b184828501612fde565b60008301525060206136c584828501612fde565b60208301525092915050565b60006136e46136df84613650565b6134aa565b90508083825260208201905060408402830185811115613707576137066134f1565b5b835b81811015613730578061371c8882613681565b845260208401935050604081019050613709565b5050509392505050565b600082601f83011261374f5761374e613445565b5b813561375f8482602086016136d1565b91505092915050565b600080600080600080600080610100898b03121561378957613788612fb3565b5b60006137978b828c01613430565b98505060206137a88b828c01613430565b97505060406137b98b828c01612fde565b96505060606137ca8b828c01612fde565b95505060806137db8b828c01612fde565b94505060a089013567ffffffffffffffff8111156137fc576137fb612fb8565b5b6138088b828c0161355f565b93505060c089013567ffffffffffffffff81111561382957613828612fb8565b5b6138358b828c01613622565b92505060e089013567ffffffffffffffff81111561385657613855612fb8565b5b6138628b828c0161373a565b9150509295985092959890939650565b600080fd5b60008083601f84011261388d5761388c613445565b5b8235905067ffffffffffffffff8111156138aa576138a9613872565b5b6020830191508360208202830111156138c6576138c56134f1565b5b9250929050565b60008083601f8401126138e3576138e2613445565b5b8235905067ffffffffffffffff811115613900576138ff613872565b5b60208301915083602082028301111561391c5761391b6134f1565b5b9250929050565b60008083601f84011261393957613938613445565b5b8235905067ffffffffffffffff81111561395657613955613872565b5b602083019150836040820283011115613972576139716134f1565b5b9250929050565b600080600080600080600080600060c08a8c03121561399b5761399a612fb3565b5b60006139a98c828d01612fde565b99505060208a013567ffffffffffffffff8111156139ca576139c9612fb8565b5b6139d68c828d0161355f565b98505060408a013567ffffffffffffffff8111156139f7576139f6612fb8565b5b613a038c828d0161373a565b97505060608a013567ffffffffffffffff811115613a2457613a23612fb8565b5b613a308c828d01613877565b965096505060808a013567ffffffffffffffff811115613a5357613a52612fb8565b5b613a5f8c828d016138cd565b945094505060a08a013567ffffffffffffffff811115613a8257613a81612fb8565b5b613a8e8c828d01613923565b92509250509295985092959850929598565b613aa981613020565b82525050565b600081519050919050565b600082825260208201905092915050565b6000819050602082019050919050565b613ae481612fbd565b82525050565b604082016000820151613b006000850182613adb565b506020820151613b136020850182613adb565b50505050565b6000613b258383613aea565b60408301905092915050565b6000602082019050919050565b6000613b4982613aaf565b613b538185613aba565b9350613b5e83613acb565b8060005b83811015613b8f578151613b768882613b19565b9750613b8183613b31565b925050600181019050613b62565b5085935050505092915050565b613ba581613068565b82525050565b600081519050919050565b600082825260208201905092915050565b6000819050602082019050919050565b6000613be38383613adb565b60208301905092915050565b6000602082019050919050565b6000613c0782613bab565b613c118185613bb6565b9350613c1c83613bc7565b8060005b83811015613c4d578151613c348882613bd7565b9750613c3f83613bef565b925050600181019050613c20565b5085935050505092915050565b600081519050919050565b600082825260208201905092915050565b6000819050602082019050919050565b6000613c928383613b9c565b60208301905092915050565b6000602082019050919050565b6000613cb682613c5a565b613cc08185613c65565b9350613ccb83613c76565b8060005b83811015613cfc578151613ce38882613c86565b9750613cee83613c9e565b925050600181019050613ccf565b5085935050505092915050565b600061012083016000830151613d226000860182613aa0565b506020830151613d356020860182613aa0565b5060408301518482036040860152613d4d8282613b3e565b9150506060830151613d626060860182613adb565b506080830151613d756080860182613adb565b5060a0830151613d8860a0860182613b9c565b5060c083015184820360c0860152613da08282613bfc565b91505060e083015184820360e0860152613dba8282613cab565b915050610100830151613dd1610100860182613adb565b508091505092915050565b60006020820190508181036000830152613df68184613d09565b905092915050565b60008060408385031215613e1557613e14612fb3565b5b6000613e238582860161326e565b9250506020613e348582860161326e565b9150509250929050565b7f4e487b7100000000000000000000000000000000000000000000000000000000600052602260045260246000fd5b60006002820490506001821680613e8557607f821691505b602082108103613e9857613e97613e3e565b5b50919050565b7f56524332353a20616d6f756e742065786565647320616c6c6f77616e63650000600082015250565b6000613ed4601e836131b0565b9150613edf82613e9e565b602082019050919050565b60006020820190508181036000830152613f0381613ec7565b9050919050565b7f56524332353a2063616c6c6572206973206e6f7420746865206f776e65720000600082015250565b6000613f40601e836131b0565b9150613f4b82613f0a565b602082019050919050565b60006020820190508181036000830152613f6f81613f33565b9050919050565b7f56524332353a206f6e6c79206e6577206f776e65722063616e2061636365707460008201527f206f776e65727368697000000000000000000000000000000000000000000000602082015250565b6000613fd2602a836131b0565b9150613fdd82613f76565b604082019050919050565b6000602082019050818103600083015261400181613fc5565b9050919050565b7f4e487b7100000000000000000000000000000000000000000000000000000000600052603260045260246000fd5b7f4e487b7100000000000000000000000000000000000000000000000000000000600052601160045260246000fd5b600061407182612fbd565b91507fffffffffffffffffffffffffffffffffffffffffffffffffffffffffffffffff82036140a3576140a2614037565b5b600182019050919050565b600081905092915050565b6140c281613068565b82525050565b60006140d483836140b9565b60208301905092915050565b60006140eb82613c5a565b6140f581856140ae565b935061410083613c76565b8060005b8381101561413157815161411888826140c8565b975061412383613c9e565b925050600181019050614104565b5085935050505092915050565b600061414a82846140e0565b915081905092915050565b600060608201905061416a6000830186613039565b614177602083018561302a565b614184604083018461302a565b949350505050565b60008160601b9050919050565b60006141a48261418c565b9050919050565b60006141b682614199565b9050919050565b6141ce6141c982613068565b6141ab565b82525050565b60006141e082846141bd565b60148201915081905092915050565b6000819050919050565b61420a61420582613020565b6141ef565b82525050565b600061421c82846141f9565b60208201915081905092915050565b7f596f75722073756d20766f746573206e6f742076616c69642e00000000000000600082015250565b60006142616019836131b0565b915061426c8261422b565b602082019050919050565b6000602082019050818103600083015261429081614254565b9050919050565b7f596f757220766f746573206e6f742076616c69642e0000000000000000000000600082015250565b60006142cd6015836131b0565b91506142d882614297565b602082019050919050565b600060208201905081810360008301526142fc816142c0565b9050919050565b600061430e82612fbd565b915061431983612fbd565b925082820190508082111561433157614330614037565b5b92915050565b7f56524332353a206e6577206f776e657220697320746865207a65726f2061646460008201527f7265737300000000000000000000000000000000000000000000000000000000602082015250565b60006143936024836131b0565b915061439e82614337565b604082019050919050565b600060208201905081810360008301526143c281614386565b9050919050565b7f56524332353a20617070726f76652066726f6d20746865207a65726f2061646460008201527f7265737300000000000000000000000000000000000000000000000000000000602082015250565b60006144256024836131b0565b9150614430826143c9565b604082019050919050565b6000602082019050818103600083015261445481614418565b9050919050565b7f56524332353a20617070726f766520746f20746865207a65726f20616464726560008201527f7373000000000000000000000000000000000000000000000000000000000000602082015250565b60006144b76022836131b0565b91506144c28261445b565b604082019050919050565b600060208201905081810360008301526144e6816144aa565b9050919050565b60006144f882612fbd565b915061450383612fbd565b925082820261451181612fbd565b9150828204841483151761452857614527614037565b5b5092915050565b7f536166654d6174683a206164646974696f6e206f766572666c6f770000000000600082015250565b6000614565601b836131b0565b91506145708261452f565b602082019050919050565b6000602082019050818103600083015261459481614558565b9050919050565b7f536166654d6174683a207375627472616374696f6e206f766572666c6f770000600082015250565b60006145d1601e836131b0565b91506145dc8261459b565b602082019050919050565b60006020820190508181036000830152614600816145c4565b9050919050565b600061461282612fbd565b915061461d83612fbd565b925082820390508181111561463557614634614037565b5b92915050565b7f56524332353a207472616e736665722066726f6d20746865207a65726f20616460008201527f6472657373000000000000000000000000000000000000000000000000000000602082015250565b60006146976025836131b0565b91506146a28261463b565b604082019050919050565b600060208201905081810360008301526146c68161468a565b9050919050565b7f56524332353a207472616e7366657220746f20746865207a65726f206164647260008201527f6573730000000000000000000000000000000000000000000000000000000000602082015250565b60006147296023836131b0565b9150614734826146cd565b604082019050919050565b600060208201905081810360008301526147588161471c565b9050919050565b7f56524332353a20696e7375666669656e742062616c616e636500000000000000600082015250565b60006147956019836131b0565b91506147a08261475f565b602082019050919050565b600060208201905081810360008301526147c481614788565b9050919050565b7f56524332353a206275726e2066726f6d20746865207a65726f2061646472657360008201527f7300000000000000000000000000000000000000000000000000000000000000602082015250565b60006148276021836131b0565b9150614832826147cb565b604082019050919050565b600060208201905081810360008301526148568161481a565b9050919050565b60006040828403121561487357614872612fb3565b5b600061488184828501613681565b91505092915050565b7f4e487b7100000000000000000000000000000000000000000000000000000000600052601260045260246000fd5b7f557365206a6163446f75626c652066756e6374696f6e20696e73746561640000600082015250565b60006148ef601e836131b0565b91506148fa826148b9565b602082019050919050565b6000602082019050818103600083015261491e816148e2565b9050919050565b600061493082612fbd565b915061493b83612fbd565b92508261494b5761494a61488a565b5b828204905092915050565b600061496182612fbd565b915061496c83612fbd565b92508261497c5761497b61488a565b5b828206905092915050565b7f496e76616c6964206e756d626572000000000000000000000000000000000000600082015250565b60006149bd600e836131b0565b91506149c882614987565b602082019050919050565b600060208201905081810360008301526149ec816149b0565b905091905056fea2646970667358221220401a2f0008d0125ea120a6fa5020dc49f8d6a251a305b3959416075bbcc7f59f64736f6c63430008130033",
  "linkReferences": {},
  "deployedLinkReferences": {}
}